{
  "contractName": "TokenBalance",
  "abi": [
    {
      "inputs": [
        {
          "internalType": "address",
          "name": "walletAddress",
          "type": "address"
        },
        {
          "internalType": "address[]",
          "name": "tokenContractAddresses",
          "type": "address[]"
        }
      ],
      "name": "getBalances",
      "outputs": [
        {
          "components": [
            {
              "internalType": "address",
              "name": "contractAddress",
              "type": "address"
            },
            {
              "internalType": "uint256",
              "name": "balance",
              "type": "uint256"
            }
          ],
          "internalType": "struct TokenBalance.Balance[]",
          "name": "",
          "type": "tuple[]"
        }
      ],
      "stateMutability": "view",
      "type": "function",
      "constant": true
    }
  ],
  "bytecode": "0x608060405234801561001057600080fd5b50610640806100206000396000f3fe608060405234801561001057600080fd5b506004361061002b5760003560e01c80636a385ae914610030575b600080fd5b61004a600480360381019061004591906102fd565b610060565b6040516100579190610463565b60405180910390f35b606060008383905067ffffffffffffffff81111561008157610080610485565b5b6040519080825280602002602001820160405280156100ba57816020015b6100a7610200565b81526020019060019003908161009f5790505b50905060005b848490508110156101f45760008585838181106100e0576100df6104b4565b5b90506020020160208101906100f591906104e3565b73ffffffffffffffffffffffffffffffffffffffff166370a08231886040518263ffffffff1660e01b815260040161012d919061051f565b602060405180830381865afa15801561014a573d6000803e3d6000fd5b505050506040513d601f19601f8201168201806040525081019061016e9190610566565b9050604051806040016040528087878581811061018e5761018d6104b4565b5b90506020020160208101906101a391906104e3565b73ffffffffffffffffffffffffffffffffffffffff168152602001828152508383815181106101d5576101d46104b4565b5b60200260200101819052505080806101ec906105c2565b9150506100c0565b50809150509392505050565b6040518060400160405280600073ffffffffffffffffffffffffffffffffffffffff168152602001600081525090565b600080fd5b600080fd5b600073ffffffffffffffffffffffffffffffffffffffff82169050919050565b60006102658261023a565b9050919050565b6102758161025a565b811461028057600080fd5b50565b6000813590506102928161026c565b92915050565b600080fd5b600080fd5b600080fd5b60008083601f8401126102bd576102bc610298565b5b8235905067ffffffffffffffff8111156102da576102d961029d565b5b6020830191508360208202830111156102f6576102f56102a2565b5b9250929050565b60008060006040848603121561031657610315610230565b5b600061032486828701610283565b935050602084013567ffffffffffffffff81111561034557610344610235565b5b610351868287016102a7565b92509250509250925092565b600081519050919050565b600082825260208201905092915050565b6000819050602082019050919050565b6103928161025a565b82525050565b6000819050919050565b6103ab81610398565b82525050565b6040820160008201516103c76000850182610389565b5060208201516103da60208501826103a2565b50505050565b60006103ec83836103b1565b60408301905092915050565b6000602082019050919050565b60006104108261035d565b61041a8185610368565b935061042583610379565b8060005b8381101561045657815161043d88826103e0565b9750610448836103f8565b925050600181019050610429565b5085935050505092915050565b6000602082019050818103600083015261047d8184610405565b905092915050565b7f4e487b7100000000000000000000000000000000000000000000000000000000600052604160045260246000fd5b7f4e487b7100000000000000000000000000000000000000000000000000000000600052603260045260246000fd5b6000602082840312156104f9576104f8610230565b5b600061050784828501610283565b91505092915050565b6105198161025a565b82525050565b60006020820190506105346000830184610510565b92915050565b61054381610398565b811461054e57600080fd5b50565b6000815190506105608161053a565b92915050565b60006020828403121561057c5761057b610230565b5b600061058a84828501610551565b91505092915050565b7f4e487b7100000000000000000000000000000000000000000000000000000000600052601160045260246000fd5b60006105cd82610398565b91507fffffffffffffffffffffffffffffffffffffffffffffffffffffffffffffffff82036105ff576105fe610593565b5b60018201905091905056fea26469706673582212203511643fbc816479d671b8e7051f37eecc3568ad8633ddfeccc71820f5b32cf564736f6c63430008120033",
  "immutableReferences": {},
  "source": "pragma solidity ^0.8.17;\n\n\n\n// https://docs.openzeppelin.com/contracts/2.x/api/token/erc20#IERC20-balanceOf-address-\ninterface Token {\n    function balanceOf(address _owner) external view returns (uint);\n}\ncontract TokenBalance \n{\n \n\n  struct Balance { \n        address contractAddress;\n        uint balance;\n    }\n\n    function getBalances(address walletAddress, address[] calldata tokenContractAddresses) external view returns(Balance[] memory) {\n    \n        Balance[] memory balances = new Balance[](tokenContractAddresses.length);\n        for(uint i =0; i < tokenContractAddresses.length; i++) {\n            uint balance = Token(tokenContractAddresses[i]).balanceOf(walletAddress);\n            balances[i] = Balance(tokenContractAddresses[i],balance);\n        }\n\n        return balances;\n\n    }\n}\n",
  "sourcePath": "/Users/andy/Documents/GitHub/code-challenge/src/problem5/contracts/TokenBalance.sol",
  "compiler": {
    "name": "solc",
    "version": "0.8.18+commit.87f61d96.Darwin.appleclang"
  },
  "schemaVersion": "3.4.11",
  "updatedAt": "2023-02-14T01:30:30.483Z",
  "networkType": "ethereum",
  "devdoc": {
    "kind": "dev",
    "methods": {},
    "version": 1
  },
  "userdoc": {
    "kind": "user",
    "methods": {},
    "version": 1
  }
}